:020000040000FA
:10000000F87F012071030000790300007B030000EA
:100010007D0300007F03000081030000000000005A
:10002000000000000000000000000000830300004A
:100030008503000000000000870300008903000022
:100040008B0300008B030000314500008B03000090
:100050008B0300008B0300008B0300008B03000068
:100060008B0300008B0300008B0300008B03000058
:100070008B0300008B0300008B0300008B03000048
:100080008B0300008B0300008B0300008B03000038
:100090008B0300008B0300008B0300008B03000028
:1000A0008B0300008B0300008B0300008B03000018
:1000B0008B0300008B030000000000000000000024
:1000C0008B0300008B0300008B0300008B030000F8
:1000D0008B0300008B0300008B0300008B030000E8
:1000E0008B0300008B0300008B0300000000000066
:1000F000000000008B030000000000008B030000E4
:1001000000000000000000000000000000000000EF
:1001100000000000000000000000000000000000DF
:1001200000000000000000000000000000000000CF
:1001300000000000000000000000000000000000BF
:1001400000000000000000000000000000000000AF
:10015000000000000000000000000000000000009F
:10016000000000000000000000000000000000008F
:10017000000000000000000000000000000000007F
:10018000000000000000000000000000000000006F
:10019000000000000000000000000000000000005F
:1001A000000000000000000000000000000000004F
:1001B000000000000000000000000000000000003F
:1001C000000000000000000000000000000000002F
:1001D000000000000000000000000000000000001F
:1001E000000000000000000000000000000000000F
:1001F00000000000000000000000000000000000FF
:1002000000F002F800F0A4F80AA090E8000C824484
:100210008344AAF10107DA4501D100F099F8AFF261
:10022000090EBAE80F0013F0010F18BFFB1A43F0D4
:100230000103184798D70900B8D70900103A24BF1E
:1002400078C878C1FAD8520724BF30C830C144BF3B
:1002500004680C607047000000230024002500267D
:10026000103A28BF78C1FBD8520728BF30C148BF19
:100270000B6070476E2900F0C984702901F033804B
:1002800066291BF0FB8465291BF0F88467291BF0A5
:10029000F58461291BF0F48403681B0A28BF41F030
:1002A0008001692900F06281642900F05F8175296D
:1002B00000F05C816F2900F0C187782900F0FF878A
:1002C000E92900F05B87E42900F05887F52900F060
:1002D0005587EF2900F0BE87F82900F0FE870368F4
:1002E000DB0928BF41F08001632901F06384732991
:1002F00001F06884E32901F07384F32901F0788424
:10030000002070471FB51BF0A4FC9DE8030000F01F
:1003100081FB01F0C7F90400002000211AF01EFE45
:10032000401C6060002000211AF002FEE060002006
:1003300000211AF029FE206101F056F800F032FB8E
:100340001FBD10B5002002F005F901F0B6F810BD90
:1003500002F042FB1146FFF7D5FF17F005FD03F051
:1003600074FA03B4FFF7EDFF03BC00F02DFB0000AF
:100370000948804709480047FEE7FEE7FEE7FEE739
:10038000FEE7FEE7FEE7FEE7FEE7FEE70448054975
:10039000054A064B7047000025430000010200009B
:1003A000F87F0020F87F0120F8FF0020F8FF0020F0
:1003B00070B5064600F00EFB056806F10B0020F054
:1003C0000704B4429CBF002070BD2B466A68BAB1D6
:1003D0001068A04210D304F1080188423CBF506865
:1003E000586007D35168101941601168091B0160FA
:1003F00058601460101D70BD13465268002AE7D182
:100400002146284600F0F2FA0028DED170BD70B512
:100410000446051F00F0DEFA0068002C14BF446893
:1004200070BD002C18BFAC423CBF20466468F8D3B6
:1004300001680A18AA4218BF456003D12A68054618
:100440001144016028684119A1421CBF6C6070BD55
:100450006168696021680844286070BD70B50D4608
:100460000646041F00F0B6FA0268BDB1DEB105F120
:100470000B0020F00701A9423CBF002070BD23689B
:100480008B4238BF506813D35A1A082A36D36018E3
:1004900040F8042B2160FFF7BAFF2FE03046FFF74A
:1004A000B6FF002070BD2846BDE87040FFF780BF52
:1004B000002818BFA0423CBF02464068F8D303EBB7
:1004C000040C84451CD1D0F800C06344994217D86D
:1004D000A3EB010CBCF1080F0DD3D0F804C06318D6
:1004E000C3F804C0D4F800C000686044401A186023
:1004F0002160536002E0236040685060201D70BDA1
:100500002846FFF755FF050008D031462068021F36
:10051000284600F080F9201DFFF779FF284670BDBE
:100520007CB51D4616460C00009001D02044401EAC
:10053000074B7B442A4669460190304600F08DFD0A
:1005400005461CB10020694600F09AFD28467CBD96
:10055000550B00000FB4044910B503AA029800F02F
:100560009DFD10BC5DF814FB940000202DE9F041C6
:100570000646002410687529314616A510D000F0F3
:10058000B1FA002802DA404213A507E031688A0771
:1005900001D512A502E0490704D511A5012401E007
:1005A00000F0A9FA00210A2206F1240709E0B0FBB5
:1005B000F2FCB0FBF2F302FB1C003030785418461A
:1005C000491C0028F3D123462A463046BDE8F041B5
:1005D00000F0C3BA000000002D0000002B00000056
:1005E000200000002DE9F05F894604464FF0000A24
:1005F000DFF874B1FB44C0F820A02046E1688847CA
:10060000002874D0252806D0D4E901219047206A1B
:10061000401C2062F1E700265F462046E1688847DB
:100620002028054607DB312D05D2781910F8200C5B
:1006300008B10643F1E7B00701D526F00406C4F877
:100640001CA00027C4F818A02A2D09D028461AF0AB
:1006500093FB38B304EB8708303DC8F8185019E015
:1006600059F8041B204604EB87029161E168884732
:10067000012F054618D1E069002820DA26F020066F
:100680001DE0D8F8180000EB800005EB4000303882
:10069000C8F818002046E168884705461AF06CFB48
:1006A0000028EED1012F0AD02E2D08D12046E16876
:1006B00088477F1C0546022F46F02006C4DBA06950
:1006C000002803DA404246F00106A061F00701D09D
:1006D00026F010066C2D0BD0682D09D04C2D39D08A
:1006E0006A2D35D0742D35D07A2D33D016E038E010
:1006F000E1682F4620468847B842054609D16C2F4D
:1007000026D04FF48060E1680643204688470546BE
:1007100004E06C2F1AD04FF4807006430DB3A5F19E
:100720004100192802D8203546F400664A46294679
:10073000204626604E46FFF79DFD80B101280BD074
:10074000F61D26F0070000F1080956E74020E4E70F
:100750008020D8E70020D6E706F104094DE72846B7
:1007600052E7206ABDE8F09F88B7010010B500206D
:1007700000F0EDFEFFF7E5FDBDE81040012000F0C0
:1007800023B90B460146184600F0CABE032A40F2C0
:10079000308010F0030C00F0158011F8013BBCF123
:1007A000020F624498BF11F801CB00F8013B38BF3B
:1007B00011F8013BA2F1040298BF00F801CB38BF49
:1007C00000F8013B11F0030300F02580083AC0F067
:1007D000088051F8043B083A51F804CBA0E808100F
:1007E000F5E7121D5CBF51F8043B40F8043BAFF342
:1007F0000080D20724BF11F8013B11F801CB48BF9C
:1008000011F8012B24BF00F8013B00F801CB48BFD1
:1008100000F8012B704710B5203AC0F00B80B1E80A
:100820001850A0E81850B1E81850A0E81850203A25
:10083000BFF4F5AF5FEA027C24BFB1E81850A0E82E
:10084000185044BF18C918C0BDE810405FEA827C48
:1008500024BF51F8043B40F8043B08BF7047D2075F
:1008600028BF31F8023B48BF11F8012B28BF20F800
:10087000023B48BF00F8012B704702F0FF0343EA38
:10088000032242EA024200F002B84FF000020429BB
:10089000C0F0128010F0030C00F01B80CCF1040CAF
:1008A000BCF1020F18BF00F8012BA8BF20F8022BE3
:1008B000A1EB0C0100F00DB85FEAC17C24BF00F889
:1008C000012B00F8012B48BF00F8012B70474FF0B7
:1008D000000200B5134694469646203922BFA0E890
:1008E0000C50A0E80C50B1F12001BFF4F7AF09079C
:1008F00028BFA0E80C5048BF0CC05DF804EB89008D
:1009000028BF40F8042B08BF704748BF20F8022BCF
:1009100011F0804F18BF00F8012B70470000000055
:1009200030B44FF0013C50F8042B51F8043BCCFAA2
:1009300052F4D51A20D1FCB950F8042B51F8043BDD
:10094000CCFA52F4D51A17D1B4B950F8042B51F897
:10095000043BCCFA52F4D51A0ED16CB950F8042BE2
:1009600051F8043BCCFA52F4D51A05D1002CDAD058
:1009700030BC4FF00000704729BAB1FA81F111F094
:100980001801D1F120008440F2D1CA40CB4012F0CE
:10099000FF0213F0FF0330BCD01A70477047704756
:1009A0007047000070B5064C7C44064D7D4404E061
:1009B0002046016808448047241DAC42F8D170BD30
:1009C000FCD209000CD3090001491820ABBEFEE798
:1009D000260002000048704744010020004870478C
:1009E0003C010020704770477047704738B5044697
:1009F0000A4600206946AFF30080002808BF38BDD2
:100A000002460099204600F055FE012038BD012025
:100A100001F0E5BDF8B5AFF30080054600200C46B7
:100A2000102000BF0646A819A0420DD932466946DB
:100A30000020AFF30080070008BF01F0D0FD009850
:100A4000A04218BF0546C419FFF7C4FF056007465A
:100A5000F01D20F007004619284600F00AF8B442BD
:100A600008BFF8BDA21B31463868BDE8F84000F069
:100A700021BE00210160C0E90110704710207047BD
:100A800010B5FFF7ABFF006810BD10B50446FFF7C7
:100A9000A5FF046010BD70B5044685690068C106F5
:100AA00001D5302600E02026C00707D070BDD4E96C
:100AB000012130469047206A401C20626D1EF6D509
:100AC00070BD70B5044685690078C00707D170BD58
:100AD000D4E9012120209047206A401C20626D1E2D
:100AE000F6D570BD09684A0501D540B27047C90501
:100AF000FCD500B2704709684A0501D5C0B27047FD
:100B0000C905FCD580B2704770B50C460546012A70
:100B100005D02878800600D5EA69002302E0012389
:100B200005E05B1C934202D2E05C0028F9D1A86981
:100B3000E618C01AA861286A184428622846FFF7F8
:100B4000AAFF04E0D5E9012114F8010B9047B44253
:100B5000F8D32846FFF7B5FF70BD2DE9F0470D46E5
:100B600099469246044600F124080168880604D597
:100B7000E06921F01001216000E00120A84201DDC0
:100B8000471B00E00027A1697A1902EB0900081A47
:100B9000A0612078C00602D42046FFF77CFF002623
:100BA00008E0D4E901211AF806009047206A401CA9
:100BB000761C20624E45F4DB2078C0060AD520461C
:100BC000FFF769FF06E0D4E9012130209047206A51
:100BD000401C2062381EA7F10107F4DC07E0D4E9CD
:100BE000012118F805009047206A401C2062281E49
:100BF000A5F10105F3DC2046FFF763FF207800062E
:100C000002D50220BDE8F0870120FBE711680268E9
:100C1000006A530501D508700AE0D30501D50880A4
:100C200006E0130603D5C217C1E9000200E0086020
:100C3000012070472DE9FF4F0C461E464FF0FF374D
:100C40008BB0D2E90001DDF860800A908A46C1F3DA
:100C50000A5505B93D46002108464FF00000BAF19B
:100C6000000F00F4400005DA00EB80004FF4400173
:100C700001EA50004FEA9059B9F1010F00DDB94681
:100C80000A9850EA4A000ED044F61050A5F2FF35FB
:100C900045432F14B8F1000F1ED07542291E1EDDEA
:100CA000C9F100021CE0B8F1010F4FF0000001D0C3
:100CB000302103E0F24305E02154401CB042FBDB4D
:100CC00030460022002121540B99C1F80880C1E967
:100CD00000200FB0BDE8F08FBD1B6D1CDEE74A465B
:100CE00000DA694206A801F0A1F806AB93E8070014
:100CF00003AB83E8070050460A9917F065FF8DE8BB
:100D00000700A0F500501F3800900398002D0ADD61
:100D100042F21F014A460844002303A90390684693
:100D200018F010FA09E0A0F500504A461F380023D9
:100D300003A90390684618F02FFA8DE80700000415
:100D4000000C03D04FF0FF30410800E01046B8F12E
:100D5000000F03D00022009215461EE0751E05D438
:100D600000F0C2FC303262556D1EF9D5B346012247
:100D7000084302D000227F1C04E02078302801D1F3
:100D800000227F1E002A099784D01DE0112D07DA6A
:100D900000F0AAFC303262556D1C50EA0102F5D118
:100DA000084302D00098C8B10EE00021681E05E09B
:100DB000235C625C63542254401E491C8142F7DB71
:100DC000AB46A81B401E0990002004F80B000B98AE
:100DD000099AC0F80880C0E9002B7AE711264FF085
:100DE000000857E72DE9F04F88460446D21D22F04F
:100DF000070191B0D1E90001CDE90A0118F018FB13
:100E000002460B98C00F01D02D2007E02068810713
:100E100001D52B2002E0202101EAC000032A09901D
:100E200001D0072A05DB03464146204600F078FE44
:100E30000BE12078800601D5E06900E00620B8F1DA
:100E4000650F814606D0B8F1660F18D0B8F1670F6C
:100E500070D131E00020B9F1110F009001DB1123B6
:100E600001E009F101030AAA01A90CA8FFF7E2FEBB
:100E7000DDE90C70002609F10105834647E00120F9
:100E80004B4600904FF000470AAA01A90CA8FFF7B3
:100E9000D1FEDDE90DB00C995D46002610B909F1CF
:100EA00001000D18B9EB050003D4C0F1FF3609F1BC
:100EB0000105A5EB09002BE0B9F1010F01DA4FF0B4
:100EC00001090020B9F1110F0090484601DD1123FE
:100ED00000E003460AAA01A90CA8FFF7ABFEDDE972
:100EE0000C704D4600268346207800070AD4AB4597
:100EF00000DA5D4601A8012D04DD411911F8011C3D
:100F0000302907D04F4502DA17F1040F04DA012027
:100F100082460FE06D1EEEE7002F02DCED1B3E4423
:100F200003E0781CA84200DD7D1CB81B00F1010A1B
:100F30004FF000472078000703D4AA4501DB4FF0AB
:100F4000FF3A0021B7F1004F0DF143088DF843102F
:100F500024D002202B23002F01DA7F422D230A21E7
:100F6000021EA0F1010000DC5FB197FBF1FC97FBD2
:100F7000F1F201FB1C7C17460CF1300C08F801CD96
:100F8000EEE7A8F1010003702188090501D545218C
:100F900000E06521A0F1010800F8011C09980FA9E3
:100FA000A1EB0807FF1D00B10120411901EBEA7018
:100FB000A1693844081A401EA0612078C00602D4F6
:100FC0002046FFF768FD099828B1D4E90121904730
:100FD000206A401C20622078C00622D52046FFF7F8
:100FE0005AFD1EE0002E04DBB34502DD01A8805D42
:100FF00000E03020D4E901219047206A401C2062A3
:10100000761CAAF101005FEA000A0AD100F04AFB4F
:10101000C0680168405CD4E901219047206A401C07
:101020002062281EA5F10105DCDC07E0D4E90121DE
:1010300018F8010B9047206A401C2062381EA7F167
:101040000107F3DC2046FFF73CFD032011B041E629
:1010500001694A1C02610878704700B58FB0CDE97C
:1010600001310021059105497944CDE9031011466C
:101070006846FFF7B7FA0FB000BD0000E5FFFFFFBD
:101080000A6802F8010B0A607047D1E900239A420E
:1010900002D2531C0B60107070470000074B70B5F4
:1010A0000D467B44FFF7D9FF0446284600F030FF89
:1010B00010B14FF0FF3070BD204670BDB36C010021
:1010C0002DE9FF5F15468A460446DFF8AC80F844F8
:1010D0000027D8E900103E46CDE9001010E03AF8AC
:1010E00016106A4602A801F004FA411C07D02178C4
:1010F000890603D5E269391891420DD80744761C58
:101100002078800602D5E069B84205DDAE42E6DB14
:101110003AF816000028E2D1A069C01BA061204661
:10112000FFF7B9FCD8E90010CDE90010002017E066
:101130003AF818106A4602A801F0DBF9B0F1FF3F57
:1011400081460BD000250DF1080B05E0D4E9012103
:101150001BF8050090476D1C4D45F7D308F10100C1
:10116000B0428046E4DB206A384420622046FFF724
:10117000A8FCBDE8FF9F00008EAD01002DE9F04105
:101180008046D21D22F007020025D2E90002F5298F
:1011900015A614D0011E72F1000106DA0023D0EB6F
:1011A000030063EB020211A608E0D8F800108B07D9
:1011B00001D50FA602E0490701D50EA6012511466B
:1011C000002408F1240704E000F08EFA30323A558A
:1011D000641C50EA0102F7D12B46324621464046B4
:1011E000BDE8F041FFF7B9BC000000002D00000091
:1011F0002B0000002000000030B4002100F1240486
:1012000008E002F00705D208303542EA4372DB08F5
:101210006554491C52EA0305F3D10468002310A267
:10122000250708D504F020040C4304D0C469012329
:101230000CA2641EC46130BCFFF78FBC10B504461D
:1012400021461068FFF757FC02462046BDE81040D3
:101250000023D1E7D21D22F00701D1E90023CBE71B
:101260000000000030000000F0B40D4601880905C0
:1012700002D5214C7C4402E01F4C7C440E340021FA
:1012800000F1240608E002F00F071209E75D42EAC8
:1012900003721B097754491C52EA0307F3D1027801
:1012A0000023120704D5702D06D009B10223113492
:1012B0002246F0BCFFF751BC01231034F8E770B5AB
:1012C00004460D4621461068FFF715FC02462946E4
:1012D0002046BDE870400023C6E7D21D22F0070378
:1012E000D3E90023C0E70368126843F020030360DA
:1012F0000823C3610023B7E7F0AB010000F010BD85
:1013000000F056BD70B50446C068810713D0800652
:1013100001D5A56A04E0A169606808442169451AFD
:10132000204600F0EDFE002206462946204600F049
:10133000F3FD304670BD002070BD70B510B1BDE842
:101340007040DFE70025074C6E1E07E02046FFF7E0
:10135000D9FF00B13546206D20F00104002CF5D1F5
:10136000284670BD400000202DE9F0419846174600
:10137000044602FB01F609B100250AE01046BDE86B
:10138000F08114F8010B414616F0E6FC401CF6D043
:101390006D1CB542F5DB3846F1E716F03DBC0000A8
:1013A000CA68431C0FD00D4B1A420CD1D3070AD088
:1013B00081F825004B680B6300238B6012F0C06F2F
:1013C0000B6003D004E04FF0FF30704742F0007232
:1013D000034B1A40034B1A43CA6070478020080031
:1013E000BFFFDFFF0010480010B542485421FFF74F
:1013F0006EFA41485421FFF76AFA40485421FFF73A
:1014000066FA3F493B483C4A3F4B08603D490A6009
:101410003A491960531C0365481C10650120086592
:101420003B48344A39A1784400F0AEFE20B9384830
:1014300078440A3801F0CCF837482F4A35A178446F
:1014400000F0A2FE20B9344878440A3801F0C0F810
:1014500032482A4A2FA1784400F096FE20B92F483E
:1014600078440A3801F0B4F840232248DC00002117
:10147000224600F0EEFD20B125487844543801F0B2
:10148000A7F81D4822464023002100F0E2FD20B1CC
:1014900021487844543801F09BF81848224610231C
:1014A000002100F0D6FD002806D01C487844BDE895
:1014B0001040563801F08CB810BD104870B5006D62
:1014C00020F001040B4800F0D7FE0B4800F0D4FEDA
:1014D0000A4800F0D1FE09E0206D20F00105204609
:1014E00000F0CAFE2046FEF792FF2C46002CF3D1F6
:1014F00070BD00004000002094000020E8000020A3
:1015000004000020080000200C00002072000000F1
:10151000B6C7010077000000A5C701007EC7010023
:101520002DE9F041074615460E461020FEF740FF14
:1015300004000AD06760C4E9026500F0B7F80168EA
:10154000216004600020BDE8F0810120FBE710B5B8
:1015500001F026F8BDE8104001F01DB810B5431C9D
:1015600002E010F8011B71B18107FAD14FF001328E
:1015700002C88C1A8C4314EAC211F9D0C01A0A06A8
:1015800003D0C01E10BDC01A10BD0A0401D0801EB9
:1015900010BD0902FCD0401E10BD520001F026B85B
:1015A000520001F027B8002101E0801C491C02888C
:1015B000002AFAD1084670472DE9F0410F4614463B
:1015C00005468046800704D084B12F80541E08F160
:1015D0000205022C0AD3284624F0010647EA0742F6
:1015E0007100FFF776F9A41B05EB460504B12F80C7
:1015F0004046BDE8F081431A28BF9A427FF6C6A84C
:1016000010441144032A40F2268010F0030F1EBF3D
:1016100011F8013D521E00F8013D10F0030F7FF458
:10162000F6AF11F0030300F0FC87083AC0F00B801E
:1016300051F8043D083A51F804CD40F8043D40F813
:1016400004CDFFF7F3BF121D5CBF51F8043D40F815
:10165000043DAFF30080D20724BF11F8013D11F81B
:1016600001CD48BF11F8012C24BF00F8013D00F85E
:1016700001CD48BF00F8012C704708B569468DF8C8
:1016800000000320ABBE08BD004870473C010020AD
:101690007047000010B500F005F8001D10BD00BF38
:1016A000BD980100004870475C0100200048704769
:1016B00074010020034640688C46002818BF884209
:1016C0003CBF03464068F8D318681844884207D0E6
:1016D0000CF1030020F00700001D411A521A0146C8
:1016E000081D0A60FEF793BE30B5B0F10A0271F131
:1016F00000034FEA900E4EEA817EB0EB0E0061EBE4
:1017000091014FEA101E4EEA017E10EB0E0041EBF4
:1017100011114FEA102E4EEA016E10EB0E0041EB54
:1017200011214FEA104E4EEA014E10EB0E0041EB34
:101730001141401841F100014FEAD00040EA4170E8
:101740004FEAD1014FEA810444EA907410EB80051E
:1017500044EB01046D1944EB0404521BA3414FF008
:10176000000348BF0A3200D530BD401C41F10001E2
:1017700030BD10B501F05EF900F0080010BD2DE994
:10178000F0410F46134615460A4606460021084614
:10179000FEF7C6FE0446401CFEF70AFE306030B17C
:1017A000611C2B463A46BDE8F041FEF7B9BE4FF04A
:1017B000FF30BDE8F08100000FB47CB50C0009AA31
:1017C000009001D02044401E084B7B4469460190A4
:1017D0000898FFF742FC05461CB100206946FFF758
:1017E0004FFC28467CBC5DF814FB0000BDF8FFFFF1
:1017F0007CB51D4616460C00009001D02044401ECA
:10180000074B7B442A46694601903046FFF725FC8A
:1018100005461CB100206946FFF732FC28467CBD16
:1018200085F8FFFF2DE9F04F04460D46D21D22F04A
:10183000070089B0D0E900974846394617F0F8FD0F
:101840000246F80F01D02D2307E02068810701D55B
:101850002B2302E0202101EAC0038DF820300BB1D8
:10186000012000E00020032A824601D0072A04DB81
:101870002946204600F054F93FE12078800601D443
:101880000D2500E0E569C7F30A560D2D49DA002160
:101890004FEA175B08464FF00000002F00F44000AD
:1018A00007DA00EB80004FF4400100EBD07001EA52
:1018B00060008115012901DD4FF0FF3100224FEA60
:1018C000850CBCF1180F06D31346ACF118004FF08D
:1018D0008052C24003E04FF4801323FA0CF30CF162
:1018E0000C0CBCF1200F04D3ACF1200C09FA0CF065
:1018F00001E007FA0CF000294FF0004801DD18B9AB
:101900000FE00ED140450CD319EB02095F4121B91C
:10191000404502D19F4329EA0209BBEB175F00D083
:10192000761C2088000502D57B48784402E07A487E
:101930007844193808AA302302F80A30037C0AF1E7
:101940000101002E0AF1020A53546A4602DC4FF0EC
:10195000300101E04FF031014FF001088DF8001027
:1019600002D0A6F2FF3603E059EA470100D06B4EE1
:10197000002D02DC2178090704D54FF002082E2142
:101980008DF80110C44600210BE0C7F303433F016B
:10199000C35C491C6D1E02F80830052908F10108D6
:1019A00001DA002DF1DC00210CE000EB1973491C79
:1019B0001B786D1E082902F808304FEA091908F152
:1019C000010801DA002DF0DC21688B0602D516E053
:1019D000A8F10108E04505DD02EB080313F8013C1E
:1019E000302BF5D0B8F1000F09DD02EB080313F836
:1019F000013C2E2B03D1090701D4A8F10108002DC9
:101A000005DD3E2102F808106D1E08F10108407C3A
:101A1000002E02F8080008F1010804DA2D207642B1
:101A200002F8080002E02B2002F808000A214FF417
:101A30007A70864208F101080BDB96FBF0F3303335
:101A400002F8083096FBF0F308F1010800FB13667A
:101A500001E0642E0CDB642096FBF0F3303302F8D7
:101A6000083096FBF0F308F1010800FB136601E073
:101A70000A2E06DB96FBF1F0303002F8080008F180
:101A8000010896FBF1F001FB1060303002F808000D
:101A9000A16908F1010808EB050202EB0A00081A27
:101AA000A0612078C00602D42046FEF7F4FF216A28
:101AB00008AE01EB0A00206204E0D4E9012116F827
:101AC000010B9047BAF1010AF7D22078C00602D57F
:101AD0002046FEF7E0FF6E4609E016F8010B3E28AF
:101AE0000FD0D4E901219047206A401C2062B8F150
:101AF0000108F2D22046FEF7E4FF09B00320BDE85A
:101B0000F08F206A2844206203E0D4E901213020CC
:101B100090476D1EEBD3F8E735A6010002FCFFFFEE
:101B20002DE9F0411F46044603260168072A01F407
:101B3000006004DB08B116A505E016A503E008B1B6
:101B400015A500E015A521F010002060A069C01EB9
:101B5000A0610FB1401EA0612046FEF79CFF4FB16F
:101B6000D4E9012138469047206A401C2062C01CFD
:101B7000206206E0206AFAE7D4E9012115F8010B9A
:101B80009047761EF8D22046FEF79BFFBDE8F08115
:101B90004E414E006E616E00494E4600696E660011
:101BA00010B5436913B1AFF3008001E0FEF7ACFF5D
:101BB000012010BD127800F124010A7000224A7041
:101BC0000122EDE711684FF0FF32E9E710B54369F4
:101BD00013B1AFF3008001E0FFF772FA012010BDEE
:101BE000128800F1240182840022C2840122EDE7E0
:101BF00011684FF0FF32E9E700B58DB0099000920F
:101C00000B904FF0FF300A9000200C90054878446C
:101C10000690054878446A46079009A801F0A4FB9D
:101C20000DB000BD771700008F1700000FB400B58E
:101C30008DB010A9099000910B904FF0FF300A90E1
:101C400000200C90064878440690064878446A467E
:101C500007900F9909A801F087FB0DB05DF814FB00
:101C60003F170000571700000FB40B0010B54FF0DE
:101C700000048AB00FA900910E99CC60234C7C44DB
:101C8000234A7A44CDE9064200D004236FF0004293
:101C9000CDE901321F4A7A446B4608920246002081
:101CA0001AF050F80AB010BC5DF814FBF0B5074606
:101CB0004FF0FF301E4615460C463B4685B06A463F
:101CC0000091CDE9010131460020049004A8FFF7FE
:101CD000CBFF04990346601825B109B1024600E024
:101CE00022462A6000290ED0002B02DD0099814295
:101CF00009D03B466A463146001B0094CDE90104F9
:101D000004A8FFF7B1FF05B0F0BD00000717000001
:101D100021170000890D000000230360FFF7C6BFF4
:101D20002DE9F04791460E4680460446002514F8FA
:101D3000017B2FB1FFF7AEFC0068C05DC007F6D194
:101D40002B2F02D02D2F1ED0641E4A46314620462E
:101D500001F03AFB26B13268A24201D1C6F80080F8
:101D60004FF002046A0518D50023D0EB030563EB9E
:101D700001025D1B934109DB0023D0EB030063EB01
:101D80000101BDE8F08745F48065DEE7FEF726FE39
:101D9000046000204FF00041F3E7021E71F10002E1
:101DA000EFDAFEF71BFE04604FF0FF304108E8E772
:101DB0002DE9F05F93460F46804604460026FEF765
:101DC0000DFED0F80090824614F8015B2DB1FFF7AC
:101DD00061FC0068405DC007F6D12B2D02D02D2D8F
:101DE0001FD0641E0021CAF800105A46394620460A
:101DF00001F0EAFA024627B13868A04201D1C7F8DB
:101E00000080DAF8000002280ED0CAF800907005B1
:101E10000AD500200346D2EB000063EB0101BDE8C8
:101E2000F09F46F48066DDE71046F8E72DE9F047BD
:101E3000814616468AB0354878440DC88DE80D00B5
:101E400032487844801C03AC0DC884E80D0041F68C
:101E50009B300844372190FBF1F290FBF1F5A5F19E
:101E6000800501FB12041B3C02D56442012000E006
:101E70000020DFF898A080460027FA44AAF1BE0AA5
:101E80000EE0E0070AD03246684607EB470101231F
:101E90000AEB810117F080F98DE8070064107F1CC0
:101EA000002CEED1194F7F44AE3F19E0E80715D062
:101EB00007EB04100DF1180A90E80E008AE80E00F6
:101EC000C068F04201D1981908903246012306A952
:101ED00003A817F061F903AB83E807006D10641CD9
:101EE000002DE3D14FF0010332466946B8F1000FEF
:101EF00003A802D017F026F901E017F04DF9C9E95F
:101F00000001C9F808200AB0BDE8F087B8A10100B7
:101F1000007B00F0800070472DE9F0410446164632
:101F20000D464769007B80072ED0384611F0B4FC7F
:101F300050BB3EB3012E02D0022E25D104E0204634
:101F400000F066F805441DE0384611F0A3FCE16896
:101F5000002841F01001E16005DA204600F09CF80D
:101F60000120BDE8F081C9030BD56268E16A9142A6
:101F700000D81146A26911442269891A814200DD04
:101F800008460544002D01DA0220EAE7E16A6068AC
:101F9000E268814206D29103E06203D522F4003167
:101FA00041F01002A6690027AE4213DCE16A8142CB
:101FB00001D90B4600E0034603EB060C2369ACEBAA
:101FC000030CAC4506DD814201D98C4600E0844615
:101FD0009C4505D1A760276042F02000A5620DE076
:101FE000AD1BE669AE1B8142A66000D90846C01A47
:101FF000281A20605819606022F020000349084028
:10200000E060002084F84870ABE70000BFCFD7FF46
:1020100010B50146C268900703D0900607D5886ABC
:102020000AE0FEF7DBFC01210160881E10BD8B6910
:10203000486818440B69C01A91F848301BB191F8F0
:102040004910401A10BD1103FCD50028FADD401ECE
:1020500010BD70B5C468A50713D0650211D4B2F5E0
:10206000807F09D0B2F5007F06D0B2F5806F08D12D
:10207000012300F1240106E05D1E6FF07F46B542AA
:1020800001D3012070BD0161C361416024F470611E
:102090001143C160002070BDC16821F4001141F0FE
:1020A0008001C16000218160016070472DE9F04727
:1020B000814614460E464FF0FF383248D5685769BE
:1020C000054209D03846A16911F01CFC002811DB3B
:1020D0002C48C0430540E5602B4632464946384609
:1020E00011F014FCA16920F00042B21A114400283A
:1020F000A16103D02046FFF7CFFF4046BDE8F0873F
:1021000070B504460569C06A6168884200D808460F
:10211000E16821F42011E160C90312D5A84208D07A
:102120002246411B2846FFF7C1FF10B14FF0FF3098
:1021300070BD0020E562C4E90150E06820F4803001
:10214000E060002070BD10B50446C06820F020009B
:10215000E060A16AA06988420DD02046FFF7D0FF59
:10216000E06820F4405040F01000E060A06AA061F8
:102170002069E062606044F24001E0688843E0600A
:1021800010BD0000100002002DE9F0410C4616467B
:10219000070047D0104600F06FF82078611C6128D6
:1021A0000AD0722802D077283CD102E00125002411
:1021B00005E00225042402E0082448F2020511F893
:1021C000010B2B2806D0622809D011F8010C7428C5
:1021D0000AD00BE045F0030544F00204EFE745F0B8
:1021E000040544F00104EAE744F0100438462146AF
:1021F00011F05AFB411C15D00021316171604FF480
:102200000071F560F1617061200704D5304602224B
:102210000021FFF781FE306D40F00100306530464F
:10222000BDE8F0810020FBE72DE9F0410D460646B0
:10223000104C206DC10704D0410804D020F00104E7
:10224000F7E722460EE05420FEF7B2F807000ED062
:10225000206D47F001010843542120653846FEF700
:1022600036FB3A4629463046BDE8F0418CE700206F
:10227000D6E70000400000202DE9F04704464FF06B
:1022800000094FF0FF37C568D4E90486A80707D0D6
:102290002046FFF735FF304611F0F2FA002802DA47
:1022A0003846BDE8F087280502D54046FEF7AFF86E
:1022B0004C212046FEF70BFB206D20F0010020652D
:1022C0004846EEE72DE9FE430E46174680460021BC
:1022D0000846AFF3008005460020009001905EB1F3
:1022E00030784FF0FF3900B1AFB11DB1D5E9000131
:1022F000CDE9000100240CE00020BDE8FE83315D43
:102300006A46641C02A801F080FA411C03D001282F
:1023100003D0BC42F3D34846EFE71DB1DDE900012D
:10232000C5E90001B8F1000F03D0BDF80810A8F806
:102330000010BDF808000028DFD02046DDE770B5AA
:102340000C4605460AB1104603E004210020AFF315
:10235000008022462946BDE870400346002000F078
:1023600039B82DE9F84F9146884607464FF00004EA
:102370005FEA030A0D681BD107210020AFF300803C
:10238000824615E015F8011B5246684601F03DFAF9
:102390000646401C13D0B61C0AD01FB1BDF8000081
:1023A00027F81400BDF80000641C70B1C8F8005094
:1023B000002FE7D04C45E5D32046BDE8F88FFEF767
:1023C0000DFB042101603046F7E70021601EC8F8CC
:1023D0000010F2E701F0C0B901F0FAB92DE9F84FA9
:1023E0009B461746894680460024DDF828A00D68E4
:1023F0005FEA0A001ED10921AFF30080824619E08E
:1024000007B315F8011B524668467F1E01F0FDF91F
:102410000646401C19D0B61C0CD0B8F1000F03D0F2
:10242000BDF8001028F81410BDF80000641C90B12D
:10243000C9F80050B8F1000FE2D05C45E0D3204667
:10244000BDE8F88FC9F80050F9E7FEF7C7FA042194
:1024500001603046F4E70021601EC9F80010EFE784
:102460002DE9FF4F91468846824683B00024109F95
:102470000E688FBB0A210020AFF3008007462BE0D7
:1024800017B1D7E900B102913A466846318800F0A9
:1024900030F80546401C0BD0BAF1000F16D0069854
:1024A000291981420CD9EFB10299C7E900B119E0AD
:1024B000FEF794FA04210160284607B0BDE8F08FCA
:1024C0000AEB04002A466946FEF760F930882C447E
:1024D00050B1B61CC8F80060D8F8000010B1B9F1CE
:1024E0000109CDD22046E8E70021641EC8F800109B
:1024F000F8E72DE9F04116460C460546FFF7CAF805
:10250000036893F80101012807D0FF2C12D8185D49
:1025100080B101202C70BDE8F081D3F8070132466C
:10252000214603F20713C7182846BC46BDE8F04110
:10253000002360474FF0FF30EDE710B5FFF7AAF832
:10254000006890F80111012901D0012010BDD0F8D8
:102550000B0110BD2DE9F0410646FFF7A7F88046B4
:10256000454613E016B1E068B0420ED120682860FD
:10257000D4E90101D8F8007088472046FDF747FFED
:10258000D8F80000B842EBD100E025462C68002CBA
:10259000E8D1BDE8F081002801D0FEF715BA7047F8
:1025A00010B5002102A001F059F9012010BD000072
:1025B000534947414252543A2041626E6F726D61F5
:1025C0006C207465726D696E6174696F6E000000D5
:1025D00010B501F05DF9BDE81040FFF7DCBF10B5A4
:1025E00001F070F9BDE81040FFF7D5BF01B5FEF767
:1025F000CDF801BD01B5FEF7FEFF01BD431A28BFAE
:102600009A427EF608A91044114410F0030F1EBF31
:1026100011F8013D521E00F8013D10F0030F7FF448
:10262000F6AF103AC0F00A8010B531E9185020E931
:102630001850103ABFF4F9AFBDE81040530724BF5B
:1026400031E9081020E9081044BF51F8043D40F872
:10265000043D12F0030F08BF7047D20728BF31F8BE
:10266000023D48BF11F8012C28BF20F8023D48BFA9
:1026700000F8012C7047000070B5054601B907212C
:10268000541A241DB4F5B67F09DD286800F05DF901
:10269000A04204DC2868401C2860012070BD002C8A
:1026A00005DA2868401E286000F04FF9044407202E
:1026B00094FBF0F0401C70BD2DE9F04F1F4615460D
:1026C0008B468246002689B0FEF7ECFFD0F81080DA
:1026D0000024BBF1000F70D015F8010B10B12528B4
:1026E0000DD10FE024B1641E06A850F82450F3E782
:1026F000002130460AF8061009B0BDE8F08F0AF84C
:102700000600C7E0E94615F8010B592870D023DC14
:1027100049286ED014DC44286DD008DC2528EED082
:1027200041283ED0422849D043282CD156E04528A4
:10273000E9D0462869D0472876D0482823D17AE0C6
:102740004D380C281FD2DFE800F0881E061E1E9BA5
:10275000A0A9B3B5C1CFD6E75A38212813D2DFE8F4
:1027600000F0111212121212121A26374550125985
:102770002612741212797E128012891296A212B356
:10278000BDCB1100A8E725200AF80600761C5E459F
:1027900013D26D1EA0E7D8F80010BA69D8F824004B
:1027A00011E0D8F80410BA69D8F828000BE0D8F87E
:1027B00008103A69D8F82C0005E0B2E0D8F80C10FF
:1027C0003A69D8F8300002FB001101EB0809AAE0D1
:1027D00006A840F82450D8F818108AE079696420D7
:1027E00091FBF0F21332484668A192E0FA6889E062
:1027F0008AE022E0FFE706A840F8245065A5641CA3
:102800006AE7FA6866A1484683E006A840F82450C3
:1028100064A5F4E7384600F0ADF8642190FBF1F2CE
:1028200001FB120258E0FFE7384600F0A3F8024629
:102830005FA168466DE0BA6864E0B8680C210B30AF
:1028400090FBF1F201FB120205E0FA6959A148463A
:10285000521C5EE03A694DA1F9E77A6852E00A211C
:1028600016E0B8680C2802DAD8F81010ADE7D8F8EE
:102870001410AAE706A840F82450D8F8341038E01D
:1028800006A840F824504DA5B9E73A683AE0092176
:102890000AF80610761C5E45B2D342E006A840F85E
:1028A000245048A5ABE7BA6902B9072248A1AAE7B4
:1028B00000210CE0786900F26C700890D7E90612EC
:1028C00008A8FFF7D9FE06E0BA69EFE70121D7E9CA
:1028D000062000F02EF802462CA1AAE706A840F830
:1028E0002450D8F81C1004E006A840F82450D8F86A
:1028F000201001EB080582E77969642091FBF0F272
:1029000000FB121221A17EE77A69484628A102F253
:102910006C7200F0C1F806E00AF80600761C5E450D
:1029200001D30020E8E619F8010B00283FF4DFAEE0
:10293000F2E7511A00D5C91D401A01D50020704791
:10294000072190FBF1F0401C704781070CD16421F6
:1029500090FBF1F201FB120151B94FF4C87190FBE9
:10296000F1F201FB120018B1002000F26D10704767
:102970000120FAE708B5416901F26C710091D0E9D4
:1029800006126846FFF778FE009808BD252E3264CF
:1029900000000000256D2F25642F25790000000020
:1029A0002532640025592D256D2D25640000000079
:1029B00025640000252E33640000000025483A25D8
:1029C0004D00000025483A254D3A255300000000EF
:1029D000252E3164000000007546FEF755FEAE4618
:1029E00005006946534620F00700854618B020B51B
:1029F000FDF7CCFCBDE820404FF000064FF000078B
:102A00004FF000084FF0000BAC46ACE8C009ACE852
:102A1000C009ACE8C009ACE8C00921F007018D4647
:102A2000704710B50446FEF735FE0068005D00F003
:102A3000010010BD10B50446FF2801D9002010BDCB
:102A4000FEF728FE0068005D10F0980F03D0C10764
:102A500001D140F4806010F4846F01D040F4006034
:102A600010F0BA0F01D040F4807010F0BE0F01D00A
:102A700040F40070810604D5010602D440F08000C5
:102A800001E020F02000C10701D0410601D5092C4A
:102A9000D5D140F4805010BD0FB41CB5084B06AA28
:102AA0007B44694600900598FEF7D7FA044600205B
:102AB0006946FEF7E5FA20461CBC5DF814FB0000F1
:102AC000DDE5FFFF3A2800D2303820F02002412A0D
:102AD00001D3A2F13700884201D34FF0FF30704795
:102AE0002DE9FF4F1C4691464FF0FF3581B0002184
:102AF0008A468846D4E90167A16902986D1C884717
:102B0000216A834688470028F6D1BBF1FF3F0CD0ED
:102B1000002F26F4C0661ADD700615D5BBF12B0F09
:102B20000AD0BBF12D0F0FD104E04FF0FF3005B0FC
:102B3000BDE8F08F46F48066A16902986D1C884755
:102B40007F1E8346002F02DDBBF1300F03D0B9F1A9
:102B5000000F2AD025E0A1696D1C02987F1E46F463
:102B600000768847002F834605DDBBF1780F06D03D
:102B7000BBF1580F03D0B9F1000F10D011E0B9F13B
:102B8000000F02D0B9F1100F0BD1A1696D1C029892
:102B90007F1E26F4007688478346102000E0082038
:102BA00081464FEAE970009017E00A20F8E74346B3
:102BB000AAFB0928DDF800C07F1E03FB098046F44C
:102BC000007605F101050AFB0C0112EB0B0A0298D5
:102BD00041EBEB78A16988478346002F06DD494623
:102BE0005846FFF76FFF5FEA000BE0D5E1690298F6
:102BF0008847B00502D46FF0010098E7F00718D1BC
:102C0000700610D55146700505D50023D1EB0301A0
:102C100063EB080200E042462068031D2360006861
:102C2000C0E9001205E02068011D21600068C0E9CC
:102C300000A828467BE72DE9FF5F1D464FF0FF3BCC
:102C400091464FF000085F46D5E90146A969019811
:102C50007F1C8847296A824688470028F6D1BAF146
:102C6000FF3F0CD0002E24F4C06419DD600614D59B
:102C7000BAF12B0F09D0BAF12D0F0ED103E058464F
:102C800004B0BDE8F09F44F48064A96901987F1CFA
:102C90008847761E8246002E02DDBAF1300F03D03F
:102CA000B9F1000F26D032E0A969761E01987F1C89
:102CB00044F400748847002E824605DDBAF1780F8F
:102CC00006D0BAF1580F03D0B9F1000F10D01EE0B2
:102CD000B9F1000F02D0B9F1100F18D1A969761E11
:102CE00001987F1C24F4007488478246102002E07B
:102CF000082000E00A20814609E0A96908FB0908CC
:102D0000761E01987F1C44F4007488478246002E8A
:102D100005DD49465046FFF7D5FE0028EDDAE969A2
:102D200001988847A00502D46FF00100A8E7E007EA
:102D300025D1600613D5600502D5C8F1000000E07A
:102D4000404629680A1D2A600968220501D50870D5
:102D500015E0220701D5088011E008600FE028681F
:102D6000011D29600068210502D580F8008006E079
:102D7000210702D5A0F8008001E0C0F800803846A5
:102D80007EE72DE9FF5F4FF000089946144646465E
:102D90009169D2E901A7DDF838B001988847054666
:102DA00059EA0B0005D009E0A1690198761C884713
:102DB0000546216A284688470028F5D1681C03D0BB
:102DC0005FEACA7005D015E04FF0FF3004B0BDE8EF
:102DD000F09F2068011D2160D0F800800AE05FEAC2
:102DE000CA7001D108F8015BA169761C01987F1EA9
:102DF00088470546002F1ADD681C18D0B9F1000F6E
:102E00000DD0E81705EBD060421120F01F0059F8F3
:102E100022102A1A012090400142E0D107E0BBF1C4
:102E2000000FDCD12846216A88470028D7D0E16905
:102E300001988847BBF1000F07D1002E05DD5FEA3E
:102E4000CA7002D1002188F80010A068B84203DDE2
:102E5000BBF1000F03D017B16FF00100B6E73046A9
:102E6000B4E700002DE9FF4F06468BB00878FF2835
:102E700006D0491C2D2805D000244FF0000908E099
:102E800000200CE00124F8E709EB8903491C00EB62
:102E900043090878FF28F7D114B1C9F10000814631
:102EA000107800252C46AA4629462D2801D02B282B
:102EB00004D1521C2D2813D0002082468B46107856
:102EC000FF280FD04FF0000C0A21521CA5FB0178FF
:102ED00004FB018105FB0C11C5194BEB0104EEE766
:102EE0000120EAE7002108464FF00000BAF1000F88
:102EF00002D000EB80004008C0F38157012F01DDB4
:102F00004FF0FF370E9955EA040009EB01080BD08A
:102F10004FF0020918F5FA7F16DA4FEACA70002F4F
:102F2000706008DD012007E04FEACA70C6E900B012
:102F30000FB0BDE8F08F00203060FDF74FFDC0F806
:102F400000901821084616E0B8F5FA7F18DD002F2A
:102F500002DAF748784401E0F6487844D0E90010F6
:102F6000C6E9001040EACA707060FDF737FDC0F88E
:102F70000090142108460FB0BDE8F04F18F07BBE5A
:102F8000002108464FF00000B8F10001099002DA74
:102F9000C7F1000200E03A4601DAC8F1000106A8D4
:102FA000FEF744FF06AB93E8070003AB83E8070096
:102FB00044F23E005BEA04010090584604D144F21A
:102FC0001E012C465D460091210C0904014306D1E7
:102FD0000099240444EA15442D041039009104F0AA
:102FE0007F41014306D10099240244EA15642D0271
:102FF0000839009104F07041014306D10099240181
:1030000044EA15742D01091F009104F04041014369
:1030100006D10099A40044EA9574AD00891E009180
:1030200004F00041084304D100986D196441401E2A
:1030300000904FF001033A466846B8F1000FCDE921
:10304000014503A902DD16F0BCF801E016F08FF887
:10305000BAF1000F04460D4601D084F0004400216F
:1030600008464FF00000099940F2FF77484010F001
:103070000C0F07D124F00040284303D0C4F30A50BA
:10308000B84212D1FDF7AAFCC0F80090C4F30A5070
:10309000B8420AD1A8487844D0E90010C6E9001027
:1030A00004F000410843706042E7C6E900543FE77E
:1030B0002DE9FF4F1F464FF0000A4FF0FF384546FD
:1030C00091B0D7E90146CDF83CA0FEF7EBFAC06815
:1030D0000168405C1090B96912986D1C8847396A84
:1030E000814688470028F6D1B9F1FF3F0AD0002E6B
:1030F00024F4D06411DDB9F12B0F08D0B9F12D0FF4
:103100000BD102E0404615B013E744F48064B9697E
:1031100012986D1C8847761E8146600504A901D56A
:103120002D2000E02B20002E01F1010B0DF13008C5
:103130008DF810003FDDB9F1690F08D0B9F1490FE2
:1031400005D0B9F16E0F02D0B9F14E0F1CD13B463C
:1031500001A8009580E85002DDE912126FF002002C
:1031600018F0F4FDC11CCED10EE0B96912986D1CA7
:10317000884781461398761E44F4007405600F98C2
:10318000401C002E0F9016DDB9F1300FEDD0B9F1D3
:10319000780F02D0B9F1580F0DD10F9801280AD13C
:1031A0003B46CDE90054DDE91212001F029618F0EB
:1031B000CBFDC11CA7D1109989453ED144F08004B4
:1031C00006E01399681CAAF1010A44F4007408602F
:1031D000B9696D1C1298761E884730288146F0D058
:1031E0002BE01099894505D1200603D4761E44F0C2
:1031F000800418E0484617F0BFFD08B3761E0DF1B5
:1032000023029345A9F1300044F4007406D20BF870
:10321000010B200607D5AAF1010003E0200602D425
:103220000AF101008246A00502D51399681C0860C6
:10323000B96912986D1C88478146002ED1DC53E095
:10324000002E51DDB9F1650F02D0B9F1450F4BD118
:10325000A00549D5B9696D1C1298761E24F44074F6
:103260008847002E81460CDD2B2804D0B9F12D0FA4
:1032700007D144F48074B96912986D1C8847761E92
:103280008146E00501D52D2100E02B2108F8011B26
:10329000CDF8008021E0761E0DF13901884544F417
:1032A00000740CD2A9F1300010F0FF0088F8000083
:1032B00002D10099884509D908F1010806E0E00526
:1032C00001D51E4801E042F20F708246B96912989A
:1032D0006D1C8847814613980560002E04DD484622
:1032E00017F04AFD0028D6D1F96912988847FF20C7
:1032F00053468BF8000088F8000000200A900B90DD
:1033000004AA0CA90AA8FFF7ADFDA00502D46FF02E
:103310000100F8E614F0240F12D0E0071CD1386841
:10332000DDE90A12031D3B600068C0E9001213E0EA
:103330009CAA09008EAA090052A90900F1D8FFFF32
:103340000AA9684617F05AFCE00705D13868009AC8
:10335000011D3960006802602846D4E60268114405
:103360001378016018467047D1600549794451616E
:1033700004497944116200211161114600F0DEBA5E
:10338000EDFFFFFFADF6FFFF426842B1016811F8A3
:10339000013B23B1521EC0E90012184670470121BB
:1033A000C160881E704742685AB1C368016843B95A
:1033B00083688B4205D0491E521CC0E900120020D0
:1033C00070474FF0FF3070472DE9F74F4FF000097D
:1033D0001546CA46009C14F8010B302801D0ADB147
:1033E00015E014F8010B4FF00109782803D0582894
:1033F00001D04DB10BE00DB1102D08D14FF00009F7
:1034000014F8010B102502E0082500E00A2500272A
:103410004FEAE57B3E46B84616E0A5FB07234FF092
:10342000010905FB08000BFB0731030C05FB061621
:10343000D7181FFA80F846F10006381E76F580305E
:1034400000D3CA4614F8010B2946FFF73BFB0028BE
:10345000E3DA019838B1B9F1000F01D0641E00E041
:10346000009C01980460BAF1000F08D0FDF7B6FA8D
:1034700002210160C81E014603B0BDE8F08F31048F
:1034800041EA174148EA0740F6E72DE9FF4F4FF0C0
:1034900000089A461446C146464683B0D2E901B7B1
:1034A000CDF80080CDF80480916904988847109980
:1034B00005465AEA010005D009E0A1690498761C86
:1034C00088470546216A284688470028F5D1681CA8
:1034D00003D05FEACB7005D02AE04FF0FF3007B091
:1034E000BDE8F08F2068011D2160D0F800801FE04A
:1034F00002A86A46E9B200F088F9411C07D0801C96
:1035000009D04FF000095FEACB7007D00AE0E1690B
:10351000049888473EE04FF0010904E0BDF8081028
:1035200028F8021B7F1EA1690498761C884705466F
:10353000002F1ADD681C18D0BAF1000F0DD0E81763
:1035400005EBD060421120F01F005AF822102A1A11
:10355000012090400142CBD107E010980028C7D14C
:103560002846216A88470028C2D0E1690498884724
:10357000B9F1000F0ED1109830B9002E04DD5FEACA
:10358000CB7001D1A8F80000A068B84202DD109805
:1035900018B117B16FF00100A1E730469FE72DE9A0
:1035A000FF4F4FF000089B461446454683B0D2E9D2
:1035B0000196CDF80080CDF804809169DDF848A02F
:1035C0000498884707465BEA0A0005D009E0A1692C
:1035D00004986D1C88470746216A384688470028AA
:1035E000F5D1781C03D05FEAC97005D01BE04FF01D
:1035F000FF3007B0BDE8F08F2068011D2160D0F8D2
:10360000008010E05FEAC97007D16A464046B9B24F
:10361000FEF76FFF411C31D08044A1696D1C0498F6
:10362000761E88470746002E14DD781C12D0BBF1A9
:10363000000007D03B46DDE9101200F039FB0028FE
:10364000E0D107E0BAF1000FDCD13846216A8847A3
:103650000028D7D0E16904988847BAF1000F06D155
:10366000002D04DD5FEAC97001D188F80000A06870
:10367000B04203DDBAF1000F03D016B16FF00100C4
:10368000B7E72846B5E72DE9FF5F9B4614460027BC
:103690003D469169D2E90196DDF840A0019888473E
:1036A00080465BEA0A0005D009E0A16901986D1C1B
:1036B00088478046216A404688470028F5D1B8F1FE
:1036C000FF3F03D05FEAC97005D014E04FF0FF3030
:1036D00004B0BDE8F09F2068011D216007680AE082
:1036E0005FEAC97001D127F8028BA1696D1C0198AE
:1036F000761E88478046002E15DDB8F1FF3F12D0B8
:10370000BBF1000007D04346DDE90E1200F0D0FA0D
:103710000028E5D107E0BAF1000FE1D14046216A67
:1037200088470028DCD0E16901988847BAF1000F8A
:1037300005D1002D03DD5FEAC97000D13880A06893
:10374000B04203DDBAF1000F03D016B16FF00100F3
:10375000BEE72846BCE700002DE9F8439946174626
:1037600080464FF000060C0002D18846012717A4BE
:10377000B9F1000F25D105210020AFF3008081466B
:103780001FE014F8011B4A46684600F03EF8761C1C
:103790000546401C0FD0AD1C13D0B8F1000F03D06C
:1037A000BDF80010A8F80010BDF80000002800D0F7
:1037B0003046BDE8F883FDF711F904210160284681
:1037C000F7E77F1EDDD26FF00100F2E70000000096
:1037D0007CB50C46054622B906210020AFF30080D7
:1037E000024621466846FEF784FE0446401C07D088
:1037F00025B1224669462846FCF7C8FF20467CBD15
:10380000FDF7ECF804210160F8E7F8B516460C4620
:103810000546FDF73FFF036893F80101012804D036
:10382000185D78B101202C80F8BDD3F80301324631
:10383000214603F20313C71868460023B8470099CE
:103840002980F8BD4FF0FF30F8BD10B50446AFF346
:1038500000802046BDE81040FCF783BD70B50546EA
:103860000C460A2000E06D1CFDF707FF35B12878F3
:103870000028F8D102E0641CFDF7FFFE14B12078A7
:103880000028F8D1BDE870400A20FDF7F6BE000020
:1038900010B5014602A0FFF7E1FF012010BD0000B6
:1038A00053494752545245443A20526564697265FF
:1038B00063743A2063616E2774206F70656E3A20DE
:1038C0000000000010B5012805D0002103A0FFF77B
:1038D000C5FF012010BD09A1F8E700005349475278
:1038E000544D454D3A204F7574206F6620686561D0
:1038F00070206D656D6F7279000000003A20486598
:103900006170206D656D6F727920636F7272757072
:1039100074656400B2F120030AD5C2F1200301FAF4
:1039200002F120FA03F341EA030100FA02F07047C2
:1039300000FA03F14FF00000704700002DE9F34F4B
:103940004FF0000A0C4656468DB001200C9001F154
:103950000C000B9062690B9801219047051E2DD039
:10396000252D2CD0216A8847C0B162690B980121AE
:103970009047216A88470028F7D16269411E0B9859
:10398000904700E0761CA1690D988847216A884716
:103990000028F7D1E1690D988847DBE7A1690D9808
:1039A0008847A842074601D1761CD3E7E1690D9804
:1039B00088477F1C02D1BAF1000F6FD06BE16269BA
:1039C0000B9800273D46394690472A2804D1626962
:1039D0000B98012190470125DFF8D08262690B988E
:1039E00001219047A0F130010A290AD24745E5DCC0
:1039F00007EB870100EB4107303FDFD445F01005AE
:103A0000ECE7E90601D46FF000476C280AD04C2897
:103A100014D0682815D06A280DD074281CD07A28B4
:103A20001AD01DE062690B98012190476C2802D0E2
:103A300045F0040514E045F002050DE045F02005D1
:103A40000AE062690B9801219047682802D045F08E
:103A5000080505E045F4006562690B98012190476F
:103A6000C4E9015765283DD019DC58287AD00CDC10
:103A7000452837D004DC252826D041289ED131E0C6
:103A800046282FD0472899D12CE05B2877D0612891
:103A900028D063287CD0642823D15AE0F6E06F2830
:103AA00048D008DC66281DD067281BD0692821D0A3
:103AB0006E2816D127E0702845D0732868D0752865
:103AC00047D078280DD14DE0A1690D988847252869
:103AD00005463FF469AFE1690D9888476D1C3FF4D6
:103AE0006AAFD8E00D9923466A466FF0010018F0DE
:103AF00029F9C5E045F0400023464FF00002606020
:103B0000A80736D43EE0E8077FF447AF2068011DE0
:103B100021600068290501D506701BE7290701D53A
:103B2000068017E7A90703D5F117C0E9006111E77F
:103B300006600FE745F0400023464FF00802606042
:103B4000A80716D41EE040F60E0125EA01006060C9
:103B500016E045F0400023464FF00A026060A807D7
:103B600007D40FE045F040006060A80708D5234661
:103B700010220D996FF00100FEF7B2FF80E007E020
:103B8000102223460D996FF00100FFF754F877E0FB
:103B90004FF0000963284F46C8464B46CB4602D03B
:103BA0005B2806D038E0E80601D40120A060012798
:103BB00032E06269D4F80CB00B98012190475E287E
:103BC00007D14FF0010949466269D4F80CB00B984F
:103BD0009047216939B900210A4603AB43F82120F7
:103BE000491C0829FADBD8B3216949B308F1010857
:103BF00062690B98012190475D28F4D1B9F1000F5B
:103C000009D0002003A951F82020D24341F82020F8
:103C1000401C0828F7DB03AB2069002820794FEA15
:103C200040701ED05B462246CDF80080CDE901975A
:103C30000D9900286FF0010020DAFFF724FD1FE046
:103C4000C11703AA00EBD1614B1121F01F0102EB58
:103C50008302411A13680120884003431360C7E7B9
:103C600019E00D99224600286FF00100009702DA52
:103C7000FFF70BFC04E0FFF784F801E0FFF78FFC8F
:103C800000280ADA401C06D10C9820B14FF0FF3012
:103C90000FB0BDE8F08F5046FAE7E90701D10AF10D
:103CA000010A064400200C9054E60000CCCCCC0C59
:103CB00010B508E030F8024B9C4204D10AB1002054
:103CC00010BD012010BD491EF4D2104610BD0000E9
:103CD0002DE9FF4F1F464FF03C0987B04FF00042DF
:103CE000DDE9141001F10108DDF858A002EA4050A6
:103CF0000390002005908346054604460490B96968
:103D0000461E08988847AAF1010A0290BAF1000FEE
:103D10003BDD02982E2815D01021FEF7D3FE002897
:103D20002EDB4FF0010B0599014317D0B9F1000FBD
:103D30000BDB4A46C117FFF7EDFD05430C43A9F124
:103D4000040905E0012004900BE008B145F00105ED
:103D500001200590049820B9361D02E0049800B1B6
:103D6000361FB969089808F101088847BBF1000FB0
:103D7000AAF1010A0290C9D00999C1F80080C5E7EB
:103D80000298702808D0502806D0F969089888470A
:103D9000BBF1000F14D04FE0002002900120BBF1D6
:103DA000000F049009D0B969089808F10108884704
:103DB000AAF10109B9F1000F07DCF96908988847F1
:103DC0006FF001000BB0BDE8F08F2B2804D02D2838
:103DD0000CD14FF0FF300490B969089808F1010840
:103DE0008847A9F10109B9F1000FE6DD411CE4D0D3
:103DF0000A21FEF767FE0028DFDB029908F10108BF
:103E000001EB810100EB41000290B96908988847F5
:103E10000A21FEF757FE099AA9F10109B9F1000F2D
:103E2000C2F8008001DD0028E7DAF96908988847C0
:103E30000499029800FB016655EA040004D004F0DE
:103E40004041090002D006E0039898E0A40044EA4B
:103E50009574AD00B61E04F00041080002D16D1942
:103E60006441761E159810F0240F03D04FF00B0913
:103E70005C4803E04FF028096FF07D00824656450C
:103E800007DAAAEB06018944B9F1410F01DD4FF0D1
:103E9000410901200021A9F10102FFF73BFD024683
:103EA00028400B462140084301D0012100E00021B9
:103EB000501E029143F1FF3128402140084301D0B8
:103EC000012000E000200299834651EA0B014FD007
:103ED000002108464FF00000039900F4400039B17A
:103EE00000EB80004FF4400100EBD07001EA60006D
:103EF0008015012802DD4FF0FF3000E013D0401C98
:103F000036D0029860B3BBF1000F0CD14A460120B5
:103F10000021FFF7FFFC28402140084301D0012089
:103F200000E00020E0B101204A460021FFF7F2FC4A
:103F3000034640190A4661412D1A8C4111D3B9F14B
:103F4000400F09DD159810F0240F02D0AAF13406B5
:103F500003E0AAF1170600E0761C00254FF00044AC
:103F600006E05B1E42F1FF3220EA030521EA02046B
:103F7000CAF10100B04206DA1B49039808430190D8
:103F8000002000900EE0039AC4F3D321E80A0A430C
:103F9000164940EA44500A433146CDE900026846DA
:103FA00016F0E0FE159810F0240F0BD01598C007FE
:103FB00015D13868DDE90012031D3B600068C0E9D7
:103FC00000120CE002A8694616F018FE1598C0070A
:103FD00005D13868029A011D3960006802604046C8
:103FE000F0E6000002FCFFFF0000F07F0000F03F61
:103FF0002DE9FF4F92461D4685B04FF00041DDE9A7
:10400000124BDDE914727F1E01EA4B50414940F02A
:10401000FF4940EA0108002122F0200049280491CC
:1040200002D04E2828D04CE03BA0012607C88DE8DE
:104030000700A9690698641C88477F1E014606D4BC
:104040001DF8060018B121F0200181420BD0E9696A
:1040500006988847032E34D0082E32D06FF0010026
:1040600009B0BDE8F08F761C032E01D0082EE0D1F8
:10407000601CCAF80000DCE7A9690698641C884740
:104080007F1E2AD420F02000412826D1A969069855
:10409000641C88477F1E20D420F020004E281CD1AD
:1040A000A9690698641C88477F1E48F4002849F4D3
:1040B0008009CAF8004001D4282806D0E96906988A
:1040C00088475FEACB7012D022E0A9690698641C89
:1040D00088477F1E01D4002803DAE96906988847DB
:1040E000BCE72928F1D1641CCAF80040E9E71BF0BD
:1040F000240F07D028680499031D2B600068C0E9CD
:10410000001805E02868021D2A600068C0F80090C9
:104110002046A5E70000F07F494E46494E495459D4
:10412000000000002DE9F041ADF5804D0DF5005C7B
:104130003C300CF140020023002500BF50E90F6124
:104140000CEB0504A16050F8301C4CF8056050F8E9
:10415000346CA16150F8281C266150F82C6CA162C7
:1041600050F8201C266250F8246CA1635119266374
:1041700050F81C6C41F8043C50F8181C565150F88B
:10418000146CA16450F8101C266550F80C6CA165E5
:1041900050F8081C266650F8046CA166016880354A
:1041A000B5F5005F00F140006360E3606361E361C7
:1041B0006362E36263636364E3646365E365636648
:1041C000C4E91B36C4E91D31E367B7D141F2481099
:1041D0000DF50054C0F20200214600220123002602
:1041E0000FF05EFF6D464FF0804040F6FC71009688
:1041F000AA1984368E42C2E90100C2E90300C2E96D
:104200000500C2E90700C2E90900C2E90B00C2E9E2
:104210000D00C2E90F00C2E91100C2E91300C2E9B2
:104220001500C2E91700C2E91900C2E91B00C2E982
:104230001D00C2E91F00C2F88400D9D105F58050E5
:104240004FF48051FCF743FB002041F6F0710090E1
:104250002A18231892ED010A92ED021A92ED032A10
:1042600093ED013A93ED024A93ED035A20EE030ACF
:1042700021EE041A22EE052A884282ED010A82ED1F
:10428000021A82ED032A09D092ED040A93ED041A72
:10429000103020EE010A82ED040AD9E741F24810FD
:1042A0006C46C0F202002146012201230FF0F8FE05
:1042B00040F29C15C2F20005204629464FF4806268
:1042C00010F0DCFB28460DF5804DBDE8F0810000C4
:1042D00040F20C50C5F200004FF4005101607047ED
:1042E00040F20C50C5F200004FF48041016070476D
:1042F00040F20850C5F200000321C0F82C12C0F8AB
:104300003012C0F83412C0F838124FF40051016076
:104310004FF4804101604FF4004101604FF480315F
:104320000160704740F23010C1F2000001680829B6
:1043300059D140F200414FF60C52C4F20001CFF6C1
:10434000FF7200238B504FF61052CFF6FF728B5046
:1043500040F23852C4F2000213600268082A42D1C7
:10436000D0F8D4324CF22052C4F200021360D0F8DC
:10437000D8325360D0F8DC329360D0F8E032D360AA
:10438000D0F8E4321361D0F8E8325361D0F8EC325F
:104390001362D0F8F0325362D0F8F4329362D0F85E
:1043A000F832D362D0F8FC321363D0F80033536391
:1043B000D0F804331364D0F808335364D0F80C33C6
:1043C0009364D0F81033D364D0F8143313650268C3
:1043D000082A08D14268002A69D00A68D2071CBF9F
:1043E0006FF001020A604EF68851CEF200010A68B1
:1043F00042F470020A60BFF34F8FBFF36F8F016802
:10440000082941F20021C1F2000108D140680428C6
:1044100005D3886840F23852C4F20002106208687E
:1044200000280ED44868B0F1FF3FC1BF40F2100031
:10443000C2F2000049F20001C0F2D031C4BF0160F5
:1044400070474EF20040C4F201000122C0F804217E
:10445000026832B9026822B9026812B90268002AF9
:10446000F6D012220A6000BF026832B9026822B98F
:10447000026812B90268002AF6D012224A6000BF10
:10448000016831B9016821B9016811B901680029D1
:10449000F6D00021C0F80411016831B9016821B9D2
:1044A000016811B901680029F6D00FF0FBF845F258
:1044B0008C6248F24813C4F20002C0F20303136096
:1044C0000268082A7FF48FAF4268002A7FF485AF24
:1044D0004FF21852C4F20002FB2313600268082A4C
:1044E0007FF481AF4268002A7FF477AF40F6E46C36
:1044F000C4F2000CDCF80030D0F828211B0963F36B
:104500001F12CCF800200268082A7FF46CAF4268C2
:10451000002A7FF462AF49F24062C4F202024FF413
:10452000007313600268082A3FF457AF5BE700008E
:1045300045F66470C2F200000068004710B543F20F
:10454000BA54C2F2000420460CF010F840F2C950F0
:1045500040F20002C0F20100C0F200022146BDE8B4
:104560001040FCF70EB910B543F2BB54C2F2000480
:1045700020460BF0FBFF40F2C95040F20002C0F2AF
:104580000100C0F200022146BDE81040FCF7F9B876
:1045900043F2B950C2F200000BF0E8BF10B543F28D
:1045A000B854C2F2000420460BF0E0FF40F2C950BC
:1045B00040F20002C0F20100C0F200022146BDE854
:1045C0001040FCF7DEB810B543F2BC54C2F2000450
:1045D00020460BF0CBFF40F2C95040F20002C0F27F
:1045E0000100C0F200022146BDE81040FCF7C9B846
:1045F0000EF0C5BF80B5AFF30080BDE880400FF07E
:1046000024B880B5AFF30080BDE880400FF01DB83E
:1046100080B5AFF30080BDE880400FF016B870475A
:10462000704770B51546059A0E4689681C463AB122
:1046300088420AD040684968FCF772F928B170BD19
:1046400040684968884218BF70BD31462A462346F3
:10465000BDE8704000F072B82DE9F0411646069AA8
:104660000C468968984607468AB18F4230D07D68EB
:1046700049682846FCF754F950B3206887420ED0A9
:1046800041682846FCF74CF948B1BDE8F0817868EC
:10469000496888421CD0216849688842F5D1206960
:1046A000B04220D06069B0421DD0D4E90910C4F8EE
:1046B0002080013001296661A06205D1A06902282D
:1046C00004BF012084F836000420E062BDE8F081D8
:1046D0006068B042D9D1E06901281CBFC4F81C80D1
:1046E000BDE8F081D1E7B8F1010F18BFBDE8F08156
:1046F00001202062BDE8F08180B5D1F808C0D0F873
:1047000004E0DCF80400864518BF80BD086950B19C
:1047100090420DD0486A0130486202208861012031
:1047200081F8360009E001200A618B61486280BD92
:104730008869022804BF8B6180BD80BD80B5486850
:104740004FF0010E984281F835E000D080BD0B6932
:10475000DDF808C081F834E02BB193420FD0486AED
:104760000130486217E00120BCF1010F0A61C1F875
:1047700018C04862EAD1086B01280CD0E6E78A69C4
:10478000022A04BFC1F818C06246086B012818BF8E
:1047900080BD012ADAD1012081F8360080BDF0B554
:1047A0008FB0054640684B6898422DD04CF27C0390
:1047B0001446C0F201034CF28802C0F2010208461E
:1047C0001946002300260FF007F8F0B101AE0746A6
:1047D000301D3421FCF77BF84FF0FF3004900120AE
:1047E000019703950D9038682268C56938463146AF
:1047F0000123A84707980138B0FA80F04FEA501615
:1048000004BF0598206000E0012630460FB0F0BDDF
:104810002DE9F04383B0DDE90A940E468968984695
:104820001546074674B18F4204D078684968FCF792
:1048300077F858B931462A46434603B0BDE8F043FD
:10484000FFF77CBF786849688842F3D0B8682A4689
:10485000016843464F693146CDF800900194B8474E
:1048600003B0BDE8F0832DE9F04383B0DDF8289074
:104870000C46896898461546B9F1000F074630D0B6
:104880008F4240D07E6849683046FCF749F8D0B383
:104890002068874204D041683046FCF741F840BBAD
:1048A0002069A84238D06069A84235D0E06AC4F8CF
:1048B0002080042838D00020A086B8682A460168E5
:1048C0002B464F69012100912146CDF80490B8474D
:1048D00094F8350030B394F834000321E16280BBD2
:1048E00022E07868496888420DD02168496888428A
:1048F000D6D0B8682A46016843468F692146CDF86C
:104900000090B8471DE06068A8421AD1E06901280C
:1049100018BFC4F81C8014E0B8F1010F04BF0120D7
:1049200020620EE00420E062D4E9091065610130E4
:104930000129A06205D1A069022804BF012084F8E2
:10494000360003B0BDE8F08380B5D1F808C0D0F8D8
:1049500004E0DCF804C0E64507D08068D0F800C069
:10496000DCF81CC0BDE880406047086950B1904247
:104970000DD0486A0130486202208861012081F828
:10498000360009E001200A618B61486280BD8869B8
:10499000022804BF8B6180BD80BD00002DE9F04F6F
:1049A00085B0DDE90E5A0C4689689B461746BAF178
:1049B000000F80460FD0884505D0D8F8040049681C
:1049C000FBF7AEFF60B921463A465B4605B0BDE84D
:1049D000F04FFFF7B3BED8F8040049688842F2D020
:1049E000D8F8141094F8346094F83530D8F80C9056
:1049F0000020A086C8074FEA2122039302D0DBF8EB
:104A000000008258D8F81000890701680BEB0203F8
:104A10002A4604954D6958BF0222009221463A4623
:104A2000CDF804A0A84794F8341094F83500039A00
:104A30000E43B9F1020F40EA02053DDB08EBC90263
:104A4000103208F118090397029200BF94F836203B
:104A500092BB39B1A06901282ED098F808008007D0
:104A600005D429E018B198F80800C00724D0002028
:104A7000A086D9F80410C8074FEA212202D0DBF83B
:104A80000000825859F8080B890701680BEB0203F4
:104A9000049A4F6958BF02220092039A2146CDF82A
:104AA00004A0B84794F8341094F83500029A0E43E5
:104AB000914545EA0005C9D3002E18BF0126002DF7
:104AC00018BF012584F8346084F8355005B0BDE87E
:104AD000F08F00002DE9F04F83B0DDF830900C46E8
:104AE000896898469346B9F1000F07466ED08F4209
:104AF00000F0B5807E6849683046FBF711FF00285A
:104B000000F0AD802068874205D041683046FBF751
:104B100007FF002862D12069584500F0A98060692C
:104B2000584500F0A580E06AC4F82080042800F011
:104B3000F580F868002840F3E48007EBC0001030EF
:104B400007F110064FF000084FF0000A029000BF76
:104B50000020A0867168C8074FEA212202D0DBF846
:104B6000000082583068890701680BEB02034FF0A0
:104B700001024D6958BF0222009221465A46CDF8E3
:104B80000490A84794F83600D0B994F8350098B14D
:104B900094F8340058B1A069012800F0B780387A41
:104BA0004FF0010A80074FF0010805D4B0E0387AD1
:104BB000C00709D04FF0010A029808368642C7D3D1
:104BC0005FEACA7000F0A080C246A1E07868496838
:104BD000884244D02168496888429CD07969FE683F
:104BE000C8074FEA212202D0DBF80000825838695A
:104BF000890701685A448D694346214658BF0223FC
:104C0000CDF80090A847022EC0F29680B86807EB56
:104C1000C60101F11006810707F1180702D4616A85
:104C200001292BD194F83600002840F0858079685E
:104C3000C8074FEA212202D0DBF80000825857F85B
:104C4000080B890701685A448D694346214658BFBD
:104C50000223CDF80090A847B742E3D36CE0606828
:104C6000584569D1E069012818BFC4F81C8063E089
:104C7000B8F1010F04BF012020625DE0C0071FD121
:104C800094F83600002857D1606A012854D079681A
:104C9000C8074FEA212202D0DBF80000825857F8FB
:104CA000080B890701685A448D694346214658BF5D
:104CB0000223CDF80090A847B742E1D33CE000BF03
:104CC00094F83600C0BB606A012802D1A0690128AF
:104CD00032D07968C8074FEA212202D0DBF8000001
:104CE000825857F8080B890701685A448D69434672
:104CF000214658BF0223CDF80090A847B742DFD322
:104D00001AE00420E06209E0042003E04FF0010A09
:104D10000320D0465FEAC871E0620DD1D4E90910E2
:104D2000C4F814B001300129A06205D1A06902289D
:104D300004BF012084F8360003B0BDE8F08F000006
:104D40002DE9F047814688680C46D9F80410406880
:104D50009A468142164621D009F11008D9F80C5024
:104D6000404621463246534600F035F8022D13DB0B
:104D700008EBC50709F12005A5F1080021463246D8
:104D8000534600F028F8BD4228BFBDE8F08794F8EC
:104D9000360008350028EFD0BDE8F087206958B10B
:104DA000B04210D0606A013060620220A061012030
:104DB00084F83600BDE8F08701202661C4F818A009
:104DC0006062BDE8F087A069022804BFC4F818A09B
:104DD000BDE8F087E0E710B5D0F804C042B15FEA63
:104DE000CC7E4FEA2C2E05D0146854F80EE001E07A
:104DF0004FF0000E00685FEA8C7458BF022304680D
:104E00007244D4F81CC0BDE810406047F0B59DB0B6
:104E10000D46DDE922011446252200278DF80820E1
:104E20008DF809008DF80A108DF80B7019B18DF806
:104E300009108DF80A0004AE02AA30466421FDF77D
:104E40003BFC206801A9401B421002AB2846CDE97B
:104E500002770196FDF785FA411C1FBF05EB400064
:104E600020601DB0F0BDFBF781FC0021C0E90011FE
:104E70008160704740F20230C0F20040704740F25B
:104E80000230C0F2004070470021C0E9001181608B
:104E9000704700207047FF2070470121C1722D210B
:104EA000018070470021C0E9001181607047FF2038
:104EB00070470021C0E900118160704740F2023064
:104EC000C0F20040704740F20230C0F2004070472C
:104ED0000021C0E900118160704700207047FF2069
:104EE00070470121C1722D21018070470021C0E966
:104EF000001181607047FF2070470021C0E9001158
:104F00008160704740F20230C0F20040704740F2CA
:104F10000230C0F2004070470021C0E900118160FA
:104F20007047002070474FF6FF70704710B5044679
:104F30000120E07220462D210122FCF73DFB0020DC
:104F4000608010BD0021C0E90011816070474FF6FC
:104F5000FF7070470021C0E900118160704740F286
:104F60000230C0F20040704740F20230C0F2004010
:104F700070470021C0E90011816070470020704730
:104F80004FF6FF70704710B504460120E0722046CE
:104F90002D210122FCF710FB0020608010BD0021B4
:104FA000C0E90011816070474FF6FF70704780B50F
:104FB00043F2BC10C2F200000078BFF35F8FC0075D
:104FC00004D043F66800C2F2000080BD43F2BC107A
:104FD000C2F2000013F0C6FD0028F2D043F66801CB
:104FE000C2F200010820C87243F64D2044F62502A3
:104FF000C5F22530C2F23A52C1E900200020087201
:105000004DF6F16040F20002C0F20000C0F2000272
:10501000FBF7B7FB43F2BC10C2F2000013F0D0FD67
:10502000CFE70000B0B543F2C010C2F20000007834
:10503000BFF35F8FC00704D043F67400C2F20000D4
:10504000B0BD43F2C010C2F2000013F08BFD002887
:10505000F2D043F674042020C2F200040EF0F8FAF5
:1050600005462020C8F200001421C4E90051A060C8
:105070000CA128461422FBF789FB002028754DF669
:10508000F16040F20002C0F20000C0F200022146CE
:10509000FBF777FB43F2C010C2F2000013F090FD63
:1050A000CAE700BF25612025622025642025483AF3
:1050B000254D3A255320255900000000B0B543F294
:1050C000C410C2F200000078BFF35F8FC00704D0A5
:1050D00043F68000C2F20000B0BD43F2C410C2F239
:1050E000000013F03FFD0028F2D043F680041020AA
:1050F000C2F200040EF0ACFA05461020C8F200001F
:105100000B21C4E90051A0600CA128460B22FBF73B
:105110003DFB0020E8724DF6F16040F20002C0F263
:105120000000C0F200022146FBF72BFB43F2C41043
:10513000C2F2000013F044FDCAE700BF25493A253A
:105140004D3A25532025700080B543F2C810C2F2B5
:1051500000000078BFF35F8FC00704D043F69000D3
:10516000C2F2000080BD43F2C810C2F2000013F08A
:10517000F9FC0028F2D043F69001C2F200010820A9
:10518000C87242F6647046F62552C7F62510C2F280
:105190002F52C1E90020002008724DF6F16040F264
:1051A0000002C0F20000C0F20002FBF7EAFA43F28C
:1051B000C810C2F2000013F003FDCFE7B0B543F210
:1051C000CC10C2F20000007843F69C05C007C2F282
:1051D0000005BFF35F8F01D02868B0BD43F2CC104B
:1051E000C2F2000013F0BEFC0028F5D043F2042008
:1051F000C2F200000078BFF35F8FC00714D043F6FF
:10520000E424C2F2000419A1204608F0D1FD04F103
:105210000C0017A108F0CCFD43F2CC10C2F2000044
:105220002C6013F0CDFCD7E743F20420C2F200005B
:1052300013F098FC0028E2D043F6E420C2F200000C
:105240001821FBF744FB43F2297040F20002C0F240
:105250000100C0F200020021FBF793FA43F20420A0
:10526000C2F2000013F0ACFCC9E700BF414D0000E2
:10527000504D0000B0B543F2D010C2F200000078EB
:1052800043F6A005C007C2F20005BFF35F8F01D04F
:105290002868B0BD43F2D010C2F2000013F062FCE7
:1052A0000028F5D043F20820C2F200000078BFF3D6
:1052B0005F8FC00750D043F6FC24C2F2000437A130
:1052C000204608F075FD04F10C0036A108F070FDD1
:1052D00004F1180035A108F06BFD04F1240035A19C
:1052E00008F066FD04F1300035A108F061FD04F11D
:1052F0003C0036A108F05CFD04F1480035A108F03F
:1053000057FD04F1540036A108F052FD04F160008D
:1053100034A108F04DFD04F16C0033A108F048FD04
:1053200004F1780031A108F043FD04F1840030A1BC
:1053300008F03EFD04F190002EA108F039FD04F1C3
:105340009C002DA108F034FD43F2D010C2F2000001
:105350002C6013F035FC9BE743F20820C2F20000FA
:1053600013F000FC0028A6D043F6FC20C2F2000097
:10537000A821FBF7ACFA43F2D16040F20002C0F280
:105380000100C0F200020021FBF7FBF943F2082004
:10539000C2F2000013F014FC8DE700BF53756E6479
:1053A000617900004D6F6E6461790000547565731A
:1053B000646179005765646E65736461790000000B
:1053C0005468757273646179000000004672696404
:1053D00061790000536174757264617900000000A6
:1053E00053756E004D6F6E0054756500576564000F
:1053F00054687500467269005361740070B543F2D9
:10540000D410C2F20000007843F6A406C007C2F22E
:105410000006BFF35F8F01D0306870BD43F2D41037
:10542000C2F2000013F09EFB0028F5D043F20C20DE
:10543000C2F200000078BFF35F8FC00700F08780E2
:1054400043F6A434C2F2000452A1204608F0B0FC96
:1054500004F10C0051A108F0ABFC04F1180052A1BA
:1054600008F0A6FC04F1240051A108F0A1FC41F2CF
:105470002945C0F2020504F13000294608F098FCE5
:1054800004F13C004CA108F093FC04F148004CA14D
:1054900008F08EFC04F154004BA108F089FC04F1E3
:1054A00060004BA108F084FC04F16C004BA108F0F3
:1054B0007FFC04F178004BA108F07AFC04F1840031
:1054C0004BA108F075FC04F190004CA108F070FCB1
:1054D00004F19C004AA108F06BFC04F1A80049A16A
:1054E00008F066FC04F1B40047A108F061FC04F187
:1054F000C000294608F05CFC04F1CC0043A108F090
:1055000057FC04F1D80042A108F052FC04F1E40079
:1055100040A108F04DFC04F1F0003FA108F048FC68
:1055200004F1FC003DA108F043FC04F584703CA1AB
:1055300008F03EFC04F58A703AA108F039FC43F209
:10554000D410C2F20000346013F03AFB64E743F277
:105550000C20C2F2000013F005FB00283FF470AFEE
:1055600043F6A430C2F200004FF49071FBF7AFF99C
:1055700043F2AD7040F20002C0F20100C0F200023E
:105580000021FBF7FEF843F20C20C2F2000013F0FA
:1055900017FB55E74A616E75617279004665627264
:1055A00075617279000000004D617263680000004F
:1055B000417072696C0000004A756E650000000061
:1055C0004A756C79000000004175677573740000BE
:1055D00053657074656D6265720000004F63746F8F
:1055E000626572004E6F76656D6265720000000044
:1055F000446563656D626572000000004A616E007B
:10560000466562004D617200417072004A756E001D
:105610004A756C0041756700536570004F637400F4
:105620004E6F760044656300B0B543F2D810C2F205
:1056300000000078BFF35F8FC00704D043F6A800D6
:10564000C2F20000B0BD43F2D810C2F2000013F065
:1056500089FA0028F2D043F6A8042020C2F2000400
:105660000DF0F6FF054610200821C8F20000C4E93D
:10567000005141F24841A060C0F2020128460822D0
:10568000FBF78BFF002028824EF2653040F20002CB
:10569000C0F20000C0F200022146FBF772F843F2AC
:1056A000D810C2F2000013F08BFAC7E7B0B543F28E
:1056B000DC10C2F200000078BFF35F8FC00704D097
:1056C00043F6B400C2F20000B0BD43F2DC10C2F2F7
:1056D000000013F047FA0028F2D043F6B40430205B
:1056E000C2F200040DF0B4FF054618201421C8F2E0
:1056F0000000C4E9005141F25A41A060C0F2020129
:1057000028461422FBF749FF002028854EF2653019
:1057100040F20002C0F20000C0F200022146FBF796
:1057200030F843F2DC10C2F2000013F049FAC7E788
:10573000B0B543F2E010C2F200000078BFF35F8F13
:10574000C00704D043F6C000C2F20000B0BD43F26F
:10575000E010C2F2000013F005FA0028F2D043F680
:10576000C0042020C2F200040DF072FF0546102094
:10577000C8F200000B21C4E90051A0600CA128462A
:105780000B22FBF70AFF0020E8824EF2653040F260
:105790000002C0F20000C0F200022146FAF7F1FF59
:1057A00043F2E010C2F2000013F00AFACAE700BFA9
:1057B000250049003A0025004D003A00250053001D
:1057C0002000250070000000B0B543F2E410C2F2E2
:1057D00000000078BFF35F8FC00704D043F6CC0011
:1057E000C2F20000B0BD43F2E410C2F2000013F0B8
:1057F000B9F90028F2D043F6CC042020C2F200040C
:105800000DF026FF054610200821C8F20000C4E96B
:10581000005141F2CA41A060C0F2020128460822AC
:10582000FBF7BBFE002028824EF2653040F20002FA
:10583000C0F20000C0F200022146FAF7A2FF43F2D4
:10584000E410C2F2000013F0BBF9C7E7B0B543F2B1
:10585000E810C2F20000007843F6D805C007C2F293
:105860000005BFF35F8F01D02868B0BD43F2E81098
:10587000C2F2000013F076F90028F5D043F21020B0
:10588000C2F200000078BFF35F8FC0071AD043F662
:10589000C444C2F2000441F23C41C0F2020120467D
:1058A00008F0D6FC41F2424104F10C00C0F20201C2
:1058B00008F0CEFC43F2E810C2F200002C6013F0B6
:1058C0007FF9D1E743F21020C2F2000013F04AF949
:1058D0000028DCD043F6C440C2F200001821FAF7D9
:1058E000F6FF43F2557040F20002C0F20100C0F230
:1058F00000020021FAF745FF43F21020C2F2000037
:1059000013F05EF9C3E70000B0B543F2EC10C2F249
:105910000000007843F6DC05C007C2F20005BFF3C3
:105920005F8F01D02868B0BD43F2EC10C2F20000D6
:1059300013F018F90028F5D043F21420C2F2000049
:105940000078BFF35F8FC0075FD043F6DC44C2F23C
:10595000000441F20051C0F20201204608F078FC38
:1059600041F2F24104F10C00C0F2020108F070FCB7
:1059700004F1180035A108F06BFC04F1240037A1F4
:1059800008F066FC41F2205104F13000C0F202013F
:1059900008F05EFC41F2E44104F13C00C0F2020177
:1059A00008F056FC41F20E5104F14800C0F2020129
:1059B00008F04EFC04F154002DA108F049FC04F15C
:1059C00060002DA108F044FC04F16C002CA108F04B
:1059D0003FFC04F178002CA108F03AFC04F18400AB
:1059E0002BA108F035FC04F190002BA108F030FC4D
:1059F00004F19C002AA108F02BFC43F2EC10C2F247
:105A000000002C6013F0DCF88CE743F21420C2F2A3
:105A1000000013F0A7F8002897D043F6DC40C2F24C
:105A20000000A821FAF753FF43F2817040F2000210
:105A3000C0F20100C0F200020021FAF7A2FE43F218
:105A40001420C2F2000013F0BBF87EE7540075008A
:105A50006500730064006100790000005700650074
:105A600064006E006500730064006100790000004E
:105A7000530075006E0000004D006F006E000000C6
:105A800054007500650000005700650064000000C8
:105A900054006800750000004600720069000000B4
:105AA000530061007400000070B543F2F010C2F2C0
:105AB0000000007843F6E006C007C2F20006BFF31C
:105AC0005F8F01D0306870BD43F2F010C2F2000069
:105AD00013F048F80028F5D043F21820C2F2000075
